:020000040800F2
:10000000000001205D0F0008CD0A0008D50A000895
:10001000DD0A0008E50A0008ED0A000800000000FB
:10002000000000000000000000000000F50A0008C9
:10003000030B000800000000110B00081F0B000854
:10004000AD0F0008AD0F0008AD0F0008AD0F0008A0
:10005000AD0F0008AD0F0008AD0F0008AD0F000890
:10006000AD0F0008AD0F0008AD0F0008AD0F000880
:10007000AD0F0008AD0F0008AD0F0008AD0F000870
:10008000AD0F0008AD0F0008AD0F00080000000024
:10009000000000000000000000000000AD0F00089C
:1000A000AD0F0008AD0F00082D0B0008AD0F0008C4
:1000B000AD0F0008AD0F0008AD0F0008AD0F000830
:1000C000AD0F0008AD0F0008AD0F0008AD0F000820
:1000D000AD0F0008410B0008AD0F00080000000044
:1000E000AD0F0008AD0F0008AD0F000800000000C4
:1000F000000000000000000000000000AD0F00083C
:1001000000000000AD0F0008AD0F0008AD0F0008A3
:1001100000000000000000000000000000000000DF
:10012000AD0F0008AD0F0008AD0F0008AD0F0008BF
:10013000AD0F0008000000000000000000000000FB
:10014000000000000000000000000000AD0F0008EB
:10015000AD0F0008AD0F0008AD0F0008AD0F00088F
:10016000AD0F0008AD0F0008000000000000000007
:10017000000000000000000000000000000000007F
:1001800000000000550B0008000000000000000007
:04019000AD0F0008A7
:1001940010B5054C237833B9044B13B10448AFF3BD
:1001A40000800123237010BDF40C00200000000027
:1001B4005CB1000808B5034B1BB103490348AFF316
:1001C400008008BD00000000F80C00205CB10008AD
:1001D40053B94AB9002908BF00281CBF4FF0FF31AA
:1001E4004FF0FF3000F088B9ADF1080C6DE904CE92
:1001F40000F006F8DDF804E0DDE9022304B07047FE
:100204002DE9F047089D8E4604468846002B4AD1C6
:100214008A42174662D9B2FA82F64EB1C6F1200379
:1002240001FA06F820FA03F3B74043EA0808B44099
:100234004FEA174E1FFA87FCB8FBFEF1230C0EFBA6
:10024400118843EA084301FB0CF29A4209D9FB18CE
:1002540001F1FF3080F0EA809A4240F2E7800239EF
:100264003B449A1AA3B2B2FBFEF00EFB102243EAFF
:10027400024300FB0CFC9C4509D9FB1800F1FF323A
:1002840080F0D6809C4540F2D3803B44023840EA5B
:100294000140A3EB0C0300211DB1F3400022C5E98A
:1002A4000032BDE8F0878B4205D90DB1C5E90001E4
:1002B40000210846F5E7B3FA83F1002946D17345D6
:1002C40002D3824200F20581841A6EEB03020120FC
:1002D4009046002DE5D0C5E90048E2E7002A00F089
:1002E4009080B2FA82F6002E40F0A4808A1A030CA1
:1002F4004FEA174E80B2BCB20121B2FBFEFC0EFBEA
:100304001C2243EA024304FB0CF29A4207D9FB186D
:100314000CF1FF3802D29A4200F2E080C4469B1AE4
:10032400B3FBFEF20EFB123340EA034302FB04F478
:100334009C4207D9FB1802F1FF3002D29C4200F222
:10034400CA8002461B1B42EA0C40A5E7C1F1200605
:100354008B4022FA06F71F430EFA01F420FA06F343
:100364002EFA06FE4FEA1749234300FA01F81FFA52
:1003740087FCBEFBF9F01C0C09FB10EE44EA0E44AA
:1003840000FB0CFEA64502FA01F209D93C1900F162
:10039400FF3A80F09C80A64540F2998002383C44A4
:1003A400A4EB0E041FFA83FEB4FBF9F309FB134418
:1003B4004EEA044403FB0CFCA44508D93C1903F1A0
:1003C400FF3E80F08280A4457FD9023B3C4443EA4F
:1003D4000040A4EB0C04A0FB02EC64457346E14628
:1003E40062D35FD05DB1B8EB030264EB090404FA95
:1003F40006F622FA01F31E43CC40C5E9006400214D
:100404004FE7B1FBF2FC010C41EA0E4180B240EA35
:1004140001423B4638463C46B846BE462026B1FB20
:10042400F7F1A2EB080241EA0C4166E7014618E73E
:1004340010462CE7C6F120022EFA02F3B740B14071
:1004440020FA02F24FEA174E0A43B3FBFEF8BCB29D
:100454000EFB1833110C41EA034108FB04F9B040C8
:1004640089454FEA104380B23ED9791808F1FF3C20
:1004740001D289451FD8A1EB0901B1FBFEF909FBA3
:1004840004F80EFB191192B242EA0142424529D204
:10049400BA1809F1FF31C4D24245C2D2A9F102010E
:1004A4003A44BEE7F0459DD2BEEB02036CEB070C69
:1004B4000138E14696E7A7EB09094944A8F1020C83
:1004C400B1FBFEF909FB04F8DBE773467FE750460E
:1004D40066E70846FDE63B44023A33E7ACF1020C1A
:1004E4003B441CE749469CE7A1EB0901C446B1FB28
:1004F400FEF909FB04F8C4E7704700BF80B500AFFC
:10050400064B074A1A60054800F0D3FE0346002B49
:1005140001D000F0A5FA00BF80BD00BF100D00207F
:100524000030024080B485B000AF78607B681B68FF
:100534000B4A93420DD10023FB600A4B1B6B094A03
:1005440043F480531363074B1B6B03F48053FB602A
:10055400FB6800BF1437BD465DF8047B704700BFDD
:10056400003002400038024080B586B000AF3B1D29
:1005740000221A605A609A60DA601A6100233B60B4
:100584000D4B1B6B0C4A43F0010313630A4B1B6BAB
:1005940003F001033B603B6801237B600023BB60E5
:1005A4000123FB603B1D1946044800F031FF00BFE6
:1005B4001837BD4680BD00BF00380240000002402D
:1005C40080B483B000AF7860044B01221A7000BF7E
:1005D4000C37BD465DF8047B704700BF990D0020C1
:1005E40080B500AF00F03CF800F054F800BF80BDC7
:1005F40080B500AF164B1B78622B0CD8144B1B78BC
:100604005A1CD1B2124A11701A46124B93F90010B7
:10061400114B99541AE00E4B1B78632B0ED10F4BE0
:10062400632219460C480AF0C2FB094B1B781A4690
:10063400084B93F90010084B995407E064220021F9
:1006440005480AF0CEFB024B00221A7000BF80BDA1
:10065400980D00209A0D0020180D0020190D00207F
:1006640080B500AF0121094801F056F80346012B7B
:1006740002D16FF07F0200E07F22054B1A70FFF772
:10068400B7FF034B00221A7000BF80BD0000024078
:100694009A0D002080B582B000AF164B1B68002B6A
:1006A40025D0154B1B78632B21D1144B144A5A6067
:1006B400144B154A5A600F4B1B68124A0F491846CF
:1006C40003F0F8FB78607B68012B0ED0094B1B68A4
:1006D400184603F0DFFA03463B604FF0FF330F2266
:1006E4000A490B4802F07EF901E000F013F80837DC
:1006F400BD4680BD9C0D0020980D0020A00D00205B
:10070400180D0020BC0D00207C0D002080B10008D5
:100714000C2F002080B584B000AF8023FB7300232E
:10072400BB6000237B6012E03F4A7B68134493F96B
:10073400003097F90F209A4206DA3B4A7B6813444B
:100744001B78FB737B68BB607B6801337B607B68D1
:100754001B2BE9DD97F90F304B2B60DDBB68002BB9
:100764005DD04FF0FF3313223049314802F03AF99B
:10077400BB68304A99184FF0FF3301222C4802F02D
:1007840031F94FF0FF3302222B49294802F02AF9AC
:100794004FF0FF330E222949254802F023F90023A4
:1007A400FB702AE00023BB70FB78254AD356002B4C
:1007B40002D14E23BB700FE0FB78214AD35613F1CC
:1007C400800F02D14423BB7006E0FB781C4AD35649
:1007D4007F2B01D15523BB70B91C4FF0FF3301228D
:1007E400134802F0FFF84FF0FF3301221549104877
:1007F40002F0F8F8FB780133FB70FB78632BD1D956
:100804004FF0FF3302220C49094802F0EBF864224E
:1008140000210B480AF0E5FA0B4B00221A7000BFC6
:100824001037BD4680BD00BF7C0D002090B100088C
:100834000C2F002038B20008A4B10008A8B10008A9
:10084400180D0020B8B10008980D0020B0B582B092
:1008540000AF00F0ABFB00F087F8FFF785FEFFF771
:100864004DFE00F0A1FA00F0C9FA00F023FA4FF0AF
:10087400FF331F223049314802F0B4F8304B1B6873
:1008840098680023022200210AF09AF92D4B7B601C
:100894003B1D002219462C4803F01EFA03463B6018
:1008A4003B78002B08D04FF0FF3310222749234810
:1008B40002F098F800F0D4F8234B1B680021184686
:1008C40003F088FA0346224A14461D460FCD0FC48E
:1008D40095E8070084E807001B4B1B6800211846B5
:1008E40003F092FA03461B4A14461D460FCD0FC46B
:1008F40095E8070084E8070064226FF07F0116483A
:100904000AF06FFA154801F0C7FB0346002B01D02B
:1009140000F0A6F84FF0FF3316221149074802F001
:1009240061F8104B1B78012BFBD1FFF759FE0D4BDF
:1009340000221A70F5E700BFBCB100080C2F00209C
:10094400A40C0020D80D00209C0D0020DCB1000870
:10095400A00D0020BC0D0020180D00207C2E0020CE
:10096400F0B10008990D002080B594B000AF07F1F4
:1009740020033022002118460AF033FA07F10C0351
:1009840000221A605A609A60DA601A610023BB6020
:10099400284B1B6C274A43F080531364254B1B6C74
:1009A40003F08053BB60BB6800237B60224B1B6851
:1009B40023F44043204A43F4004313601E4B1B6856
:1009C40003F440437B607B6802233B620123FB62A8
:1009D40010233B630223BB630023FB6308233B64B4
:1009E40054237B640223BB640723FB6407F12003C5
:1009F400184600F0A9FE0346002B01D000F030F8A1
:100A04000F23FB6002233B6100237B614FF480537F
:100A1400BB610023FB6107F10C030221184601F0BE
:100A24000BF90346002B01D000F01AF800BF503731
:100A3400BD4680BD003802400070004080B582B0E1
:100A440000AF7860391D4FF0FF330122034801F0F5
:100A5400C9FF7B6818460837BD4680BD0C2F0020AF
:100A640080B400AF72B600BF00BFFDE780B582B0AE
:100A740000AF00237B60134B5B6C124A43F480434A
:100A84005364104B5B6C03F480437B607B680023EE
:100A94003B600C4B1B6C0B4A43F080531364094BB3
:100AA4001B6C03F080533B603B6800220021512003
:100AB40000F0C9FB512000F0E2FB00BF0837BD463F
:100AC40080BD00BF0038024080B400AF00BFFDE726
:100AD40080B400AF00BFFDE780B400AF00BFFDE706
:100AE40080B400AF00BFFDE780B400AF00BFFDE7F6
:100AF40080B400AF00BFBD465DF8047B704780B48E
:100B040000AF00BFBD465DF8047B704780B400AF02
:100B140000BFBD465DF8047B704780B500AF00F0B0
:100B240097FA00BF80BD000080B500AF024801F015
:100B34006EFB00BF80BD00BF7C2E002080B500AFDF
:100B4400024801F0DBFF00BF80BD00BFC42E0020BF
:100B540080B400AF00BFBD465DF8047B704780B52C
:100B640086B000AFF860B9607A6000237B610AE068
:100B7400AFF300800146BB685A1CBA60CAB21A704F
:100B84007B6901337B617A697B689A42F0DB7B681D
:100B940018461837BD4680BD80B586B000AFF860F2
:100BA400B9607A6000237B6109E0BB685A1CBA60B3
:100BB4001B781846FFF742FF7B6901337B617A6932
:100BC4007B689A42F1DB7B6818461837BD4680BDC6
:100BD40080B483B000AF78604FF0FF3318460C3711
:100BE400BD465DF8047B704780B483B000AF786085
:100BF40039603B684FF400525A60002318460C37A2
:100C0400BD465DF8047B704780B485B000AFF860E2
:100C1400B9607A60002318461437BD465DF8047B3A
:100C24007047000080B586B000AF7860144A154B59
:100C3400D31A7B617B693B61134B1B68002B02D188
:100C4400114B124A1A60104B1A687B6813443A69B4
:100C54009A4207D20AF024F903460C221A604FF094
:100C6400FF3309E0084B1B68FB60074B1A687B687D
:100C74001344054A1360FB6818461837BD4680BD07
:100C84000000012000080000782E002078310020A8
:100C940080B400AF064BD3F88830054A43F47003A0
:100CA400C2F8883000BFBD465DF8047B704700BFC2
:100CB40000ED00E080B588B000AF3B1D00221A6053
:100CC4005A609A60DA601A615A619A61204B214A2B
:100CD4001A601F4B53225A601D4B00229A601C4B12
:100CE4004CF24F32DA601A4B00221A61184B802200
:100CF4009A61174801F080F90346002B01D0FFF7F1
:100D0400AFFE134801F02AFA0346002B01D0FFF787
:100D1400A7FE00237B600023BB600023FB6000234D
:100D24007B613B1D00221946094801F061FB034623
:100D3400002B01D0FFF794FE054B1B689A69044B06
:100D44001B6842F008029A6100BF2037BD4680BD8F
:100D54007C2E00200048014080B584B000AF78604C
:100D64007B681B680E4A934215D10023FB600D4B30
:100D74005B6C0C4A43F4802353640A4B5B6C03F4AE
:100D84008023FB60FB68002200211A2000F05BFA3C
:100D94001A2000F074FA00BF1037BD4680BD00BFB2
:100DA400004801400038024080B500AF114B124AA0
:100DB4001A60104B4FF4E1325A600E4B00229A60D5
:100DC4000C4B0022DA600B4B00221A61094B0C22F7
:100DD4005A61084B00229A61064B0022DA610548E9
:100DE40001F0B0FD0346002B01D0FFF739FE00BF30
:100DF40080BD00BFC42E00200010014080B500AFAC
:100E0400114B124A1A60104B4FF4E1325A600E4BE8
:100E140000229A600C4B0022DA600B4B00221A610C
:100E2400094B0C225A61084B00229A61064B00229E
:100E3400DA61054801F086FD0346002B01D0FFF777
:100E44000FFE00BF80BD00BF0C2F002000440040F7
:100E540080B58CB000AF786007F11C0300221A60E3
:100E64005A609A60DA601A617B681B68364A93425A
:100E740035D10023BB61354B5B6C344A43F010031E
:100E84005364324B5B6C03F01003BB61BB690023FA
:100E94007B612E4B1B6B2D4A43F0010313632B4BD9
:100EA4001B6B03F001037B617B694FF4C063FB613F
:100EB40002233B6200237B620323BB620723FB62A2
:100EC40007F11C031946224800F0A2FA002200216F
:100ED400252000F0B8F9252000F0D1F930E07B6836
:100EE4001B681C4A93422BD100233B61174B1B6C9C
:100EF400164A43F400331364144B1B6C03F400339D
:100F04003B613B690023FB60104B1B6B0F4A43F0B2
:100F1400010313630D4B1B6B03F00103FB60FB68C0
:100F24000C23FB6102233B6200237B620323BB622D
:100F34000723FB6207F11C031946054800F068FA11
:100F440000BF3037BD4680BD00100140003802406C
:100F54000000024000440040DFF834D0FFF798FE60
:100F64000C480D490D4A002302E0D458C450043300
:100F7400C4188C42F9D30A4A0A4C002301E01360D6
:100F84000432A242FBD309F091FFFFF75FFC7047E4
:100F94000000012000000020F40C0020D0C900084B
:100FA400F40C002078310020FEE7000080B500AF8B
:100FB4000E4B1B680D4A43F4007313600B4B1B6804
:100FC4000A4A43F480631360084B1B68074A43F4DE
:100FD40080731360032000F02BF90F2000F008F851
:100FE400FFF744FD0023184680BD00BF003C0240CB
:100FF40080B582B000AF7860124B1A68124B1B7830
:1010040019464FF47A73B3FBF1F3B2FBF3F31846CA
:1010140000F043F90346002B01D001230EE07B6866
:101024000F2B0AD8002279684FF0FF3000F00BF93B
:10103400064A7B681360002300E001231846083742
:10104400BD4680BD000000200800002004000020F0
:1010540080B400AF064B1B781A46064B1B6813443A
:10106400044A136000BFBD465DF8047B704700BFAF
:1010740008000020542F002080B400AF034B1B68ED
:101084001846BD465DF8047B704700BF542F00200E
:1010940080B485B000AF78607B6803F00703FB6021
:1010A4000C4BDB68BB60BA684FF6FF031340BB60B0
:1010B400FB681A02BB68134343F0BF6343F4003375
:1010C400BB60044ABB68D36000BF1437BD465DF8FB
:1010D400047B704700ED00E080B400AF044BDB6894
:1010E4001B0A03F007031846BD465DF8047B7047EE
:1010F40000ED00E080B483B000AF0346FB7197F9C4
:101104000730002B0BDBFB7903F01F02074997F92B
:1011140007305B09012000FA02F241F8232000BFE6
:101124000C37BD465DF8047B704700BF00E100E06A
:1011340080B483B000AF03463960FB7197F9073080
:10114400002B0ADB3B68DAB20C4997F9073012012D
:10115400D2B20B4483F800230AE03B68DAB20849B0
:10116400FB7903F00F03043B1201D2B20B441A764D
:1011740000BF0C37BD465DF8047B704700E100E01A
:1011840000ED00E080B489B000AFF860B9607A6027
:10119400FB6803F00703FB61FB69C3F10703042B3E
:1011A40028BF0423BB61FB690433062B02D9FB6906
:1011B400033B00E000237B614FF0FF32BB6902FA7E
:1011C40003F3DA43BB681A407B699A404FF0FF315E
:1011D4007B6901FA03F3D9437B680B401343184638
:1011E4002437BD465DF8047B7047000080B582B0AB
:1011F40000AF78607B68013BB3F1807F01D30123AA
:101204000FE00A4A7B68013B53600F214FF0FF3027
:10121400FFF78EFF054B00229A60044B07221A60E9
:10122400002318460837BD4680BD00BF10E000E02B
:1012340080B582B000AF78607868FFF729FF00BFFF
:101244000837BD4680BD80B586B000AF0346B9609F
:101254007A60FB7300237B61FFF73EFF78617A6855
:10126400B9687869FFF78EFF024697F90F30114687
:101274001846FFF75DFF00BF1837BD4680BD80B537
:1012840082B000AF0346FB7197F907301846FFF7A9
:1012940031FF00BF0837BD4680BD80B582B000AFC6
:1012A40078607868FFF7A2FF034618460837BD4602
:1012B40080BD80B582B000AF78607B68002B01D11F
:1012C40001230EE07B685B79DBB2002B05D17B68E0
:1012D40000221A717868FFF725F97B6801225A7198
:1012E400002318460837BD4680BD80B584B000AFE2
:1012F40078607B689B6DFB60FFF7BEFEB8607B681F
:1013040093F83530DBB2022B08D07B6880225A6513
:101314007B68002283F83420012352E07B681B6839
:101324001A687B681B6822F016021A607B681B68C7
:101334005A697B681B6822F080025A617B681B6CC7
:10134400002B03D17B689B6C002B07D07B681B6848
:101354001A687B681B6822F008021A607B681B68A5
:101364001A687B681B6822F001021A6013E0FFF719
:1013740083FE0246BB68D31A052B0CD97B68202256
:101384005A657B68032283F835207B68002283F842
:101394003420032315E07B681B681B6803F00103FA
:1013A400002BE4D17B68DB6D3F229A40FB689A6096
:1013B4007B68012283F835207B68002283F834207F
:1013C400002318461037BD4680BD80B483B000AFFB
:1013D40078607B6893F83530DBB2022B04D07B68ED
:1013E40080225A6501230CE07B68052283F83520AE
:1013F4007B681B681A687B681B6822F001021A600C
:10140400002318460C37BD465DF8047B7047000086
:1014140080B489B000AF7860396000237B61002319
:101424003B610023BB610023FB6159E10122FB699D
:1014340002FA03F37B613B681B687A6913403B61E2
:101444003A697B699A4240F048813B685B6803F0E3
:101454000303012B05D03B685B6803F00303022BF5
:1014640030D17B689B68BB61FB695B00032202FA95
:1014740003F3DB43BA691340BB613B68DA68FB6979
:101484005B0002FA03F3BA691343BB617B68BA6970
:101494009A607B685B68BB610122FB6902FA03F313
:1014A400DB43BA691340BB613B685B681B0903F00B
:1014B4000102FB6902FA03F3BA691343BB617B6857
:1014C400BA695A603B685B6803F00303032B17D0C7
:1014D4007B68DB68BB61FB695B00032202FA03F3F0
:1014E400DB43BA691340BB613B689A68FB695B00E4
:1014F40002FA03F3BA691343BB617B68BA69DA6021
:101504003B685B6803F00303022B23D1FB69DA0811
:101514007B68083253F82230BB61FB6903F0070390
:101524009B000F2202FA03F3DB43BA691340BB6149
:101534003B681A69FB6903F007039B0002FA03F393
:10154400BA691343BB61FB69DA087B680832B9697D
:1015540043F822107B681B68BB61FB695B000322B4
:1015640002FA03F3DB43BA691340BB613B685B686F
:1015740003F00302FB695B0002FA03F3BA69134345
:10158400BB617B68BA691A603B685B6803F44033EB
:10159400002B00F0A2800023FB60574B5B6C564A83
:1015A40043F480435364544B5B6C03F48043FB600B
:1015B400FB68524AFB699B08023352F82330BB6133
:1015C400FB6903F003039B000F2202FA03F3DB43DE
:1015D400BA691340BB617B68494A934219D07B685E
:1015E400484A934213D07B68474A93420DD07B68A4
:1015F400464A934207D07B68454A934201D104236B
:1016040008E0072306E0032304E0022302E00123A9
:1016140000E00023FA6902F0030292009340BA69E1
:101624001343BB613549FB699B080233BA6941F82E
:101634002320384B9B68BB613B69DB43BA69134089
:10164400BB613B685B6803F48013002B03D0BA6969
:101654003B691343BB612F4ABB6993602D4BDB6825
:10166400BB613B69DB43BA691340BB613B685B68A0
:1016740003F40013002B03D0BA693B691343BB6125
:10168400244ABB69D360234B5B68BB613B69DB4382
:10169400BA691340BB613B685B6803F40033002BF9
:1016A40003D0BA693B691343BB611A4ABB695360EF
:1016B400184B1B68BB613B69DB43BA691340BB61D0
:1016C4003B685B6803F48033002B03D0BA693B6941
:1016D4001343BB610F4ABB691360FB690133FB61B0
:1016E400FB690F2B7FF6A2AE00BF00BF2437BD46B7
:1016F4005DF8047B704700BF0038024000380140A9
:10170400000002400004024000080240000C0240B5
:1017140000100240003C014080B485B000AF786006
:101724000B467B807B681A697B881340002B02D0B0
:101734000123FB7301E00023FB73FB7B1846143782
:10174400BD465DF8047B704780B586B000AF786015
:101754007B68002B01D1012367E27B681B6803F0DF
:101764000103002B75D0884B9B6803F00C03042BFA
:101774000CD0854B9B6803F00C03082B12D1824BD1
:101784005B6803F48003B3F5800F0BD17E4B1B68B9
:1017940003F40033002B5BD07B685B68002B57D1CC
:1017A400012342E27B685B68B3F5803F06D1764B48
:1017B4001B68754A43F4803313601DE07B685B68E3
:1017C400B3F5A02F0CD1704B1B686F4A43F48023F0
:1017D40013606D4B1B686C4A43F4803313600BE059
:1017E400694B1B68684A23F480331360664B1B689B
:1017F400654A23F4802313607B685B68002B13D055
:10180400FFF73AFC386108E0FFF736FC02463B6913
:10181400D31A642B01D9032307E25B4B1B6803F43F
:101824000033002BF0D014E0FFF726FC386108E009
:10183400FFF722FC02463B69D31A642B01D9032328
:10184400F3E1514B1B6803F40033002BF0D100E0AB
:1018540000BF7B681B6803F00203002B63D04A4B74
:101864009B6803F00C03002B0BD0474B9B6803F0E1
:101874000C03082B1CD1444B5B6803F48003002B3E
:1018840016D1414B1B6803F00203002B05D07B6883
:10189400DB68012B01D00123C7E13B4B1B6823F01C
:1018A400F8027B681B69DB00374913430B603AE09D
:1018B4007B68DB68002B20D0344B01221A60FFF7D1
:1018C400DBFB386108E0FFF7D7FB02463B69D31A1C
:1018D400022B01D90323A8E12B4B1B6803F002035D
:1018E400002BF0D0284B1B6823F0F8027B681B699F
:1018F400DB00254913430B6015E0244B00221A60DA
:10190400FFF7BAFB386108E0FFF7B6FB02463B6914
:10191400D31A022B01D9032387E11B4B1B6803F065
:101924000203002BF0D17B681B6803F00803002B33
:1019340036D07B685B69002B16D0154B01221A60E8
:10194400FFF79AFB386108E0FFF796FB02463B6914
:10195400D31A022B01D9032367E10B4B5B6F03F00E
:101964000203002BF0D01BE0094B00221A60FFF7A2
:1019740083FB38610EE0FFF77FFB02463B69D31A15
:10198400022B07D9032350E10038024000004742EC
:10199400800E4742884B5B6F03F00203002BEAD1B1
:1019A4007B681B6803F00403002B00F0978000237E
:1019B400FB75814B1B6C03F08053002B0FD100236C
:1019C400BB607D4B1B6C7C4A43F0805313647A4BA1
:1019D4001B6C03F08053BB60BB680123FB75774B22
:1019E4001B6803F48073002B18D1744B1B68734A73
:1019F40043F480731360FFF73FFB386108E0FFF79F
:101A04003BFB02463B69D31A022B01D903230CE1A9
:101A14006A4B1B6803F48073002BF0D07B689B68CF
:101A2400012B06D1644B1B6F634A43F00103136718
:101A34001CE07B689B68052B0CD15F4B1B6F5E4AD7
:101A440043F0040313675C4B1B6F5B4A43F00103D1
:101A540013670BE0584B1B6F574A23F001031367BE
:101A6400554B1B6F544A23F0040313677B689B6830
:101A7400002B15D0FFF700FB38610AE0FFF7FCFAF2
:101A840002463B69D31A41F28832934201D90323B7
:101A9400CBE0494B1B6F03F00203002BEED014E0A4
:101AA400FFF7EAFA38610AE0FFF7E6FA02463B6913
:101AB400D31A41F28832934201D90323B5E03E4B55
:101AC4001B6F03F00203002BEED1FB7D012B05D12C
:101AD400394B1B6C384A23F0805313647B689B6931
:101AE400002B00F0A180344B9B6803F00C03082BFF
:101AF4005CD07B689B69022B41D1314B00221A6078
:101B0400FFF7BAFA386108E0FFF7B6FA02463B6914
:101B1400D31A022B01D9032387E0274B1B6803F058
:101B24000073002BF0D17B68DA697B681B6A1A4367
:101B34007B685B6A9B011A437B689B6A5B08013B79
:101B44001B041A437B68DB6A1B061B4913434B6067
:101B54001B4B01221A60FFF78FFA386108E0FFF788
:101B64008BFA02463B69D31A022B01D903235CE0AA
:101B7400114B1B6803F00073002BF0D054E0104BA2
:101B840000221A60FFF778FA386108E0FFF774FA68
:101B940002463B69D31A022B01D9032345E0064BC5
:101BA4001B6803F00073002BF0D13DE07B689B6958
:101BB400012B07D1012338E00038024000700040B7
:101BC400600047421B4B5B68FB607B689B69012B91
:101BD40028D0FB6803F480027B68DB699A4221D138
:101BE400FB6803F03F027B681B6A9A421AD1FA68C9
:101BF40047F6C07313407A68526A9201934211D136
:101C0400FB6803F440327B689B6A5B08013B1B045E
:101C14009A4207D1FB6803F070627B68DB6A1B069B
:101C24009A4201D0012300E0002318461837BD462C
:101C340080BD00BF0038024080B584B000AF78603A
:101C440039607B68002B01D10123CCE0684B1B6811
:101C540003F007033A689A420CD9654B3A68D2B24A
:101C64001A70634B1B6803F007033A689A4201D069
:101C74000123B8E07B681B6803F00203002B20D02B
:101C84007B681B6803F00403002B05D0594B9B6849
:101C9400584A43F4E05393607B681B6803F00803DD
:101CA400002B05D0534B9B68524A43F46043936026
:101CB400504B9B6823F0F0027B689B684D491343AB
:101CC4008B607B681B6803F00103002B44D07B68A6
:101CD4005B68012B07D1474B1B6803F40033002BCF
:101CE40019D101237FE07B685B68022B03D07B68FA
:101CF4005B68032B07D13F4B1B6803F00073002B79
:101D040009D101236FE03B4B1B6803F00203002B56
:101D140001D1012367E0374B9B6823F003027B6802
:101D24005B68344913438B60FFF7A6F9F8600AE057
:101D3400FFF7A2F90246FB68D31A41F288329342B4
:101D440001D903234FE02B4B9B6803F00C027B6803
:101D54005B689B009A42EBD1254B1B6803F0070399
:101D64003A689A420CD2224B3A68D2B21A70204B8B
:101D74001B6803F007033A689A4201D0012332E05A
:101D84007B681B6803F00403002B08D0194B9B6885
:101D940023F4E0527B68DB68164913438B607B684D
:101DA4001B6803F00803002B09D0124B9B6823F433
:101DB40060427B681B69DB000E4913438B6000F0B3
:101DC40021F802460B4B9B681B0903F00F030A49D9
:101DD400CB5C22FA03F3094A1360094B1B681846CB
:101DE400FFF706F9002318461037BD4680BD00BF33
:101DF400003C02400038024058B2000800000020B5
:101E0400040000202DE9B04F90B000AF00237B63A5
:101E14000023FB6300233B630023BB63594B9B6894
:101E240003F00C03082B0DD0082B00F2A180002B2B
:101E340002D0042B03D09BE0534BBB639BE0534B7A
:101E4400BB6398E04F4B5B6803F03F037B634D4BF0
:101E54005B6803F48003002B28D04A4B5B689B0922
:101E640000223B627A623B6AC3F308000021474BBD
:101E740003FB01F2002300FB03F31344434AA0FBDA
:101E84000212FA620A46BA62FA6A1344FB627B6B74
:101E94000022BB61FA61D7E90623D7E90A01FEF7FC
:101EA40097F902460B461346FB6353E0354B5B68D8
:101EB4009B0900223B617A613B69C3F3080A4FF036
:101EC400000B52465B464FF000004FF000015901F1
:101ED40041EAD261500102460B46B2EB0A0863EBB9
:101EE4000B094FF000024FF000034FEA891343EA55
:101EF40098634FEA8812B2EB080463EB09054FF0CC
:101F040000024FF00003EB0043EA5473E20014466E
:101F14001D4614EB0A033B6045EB0B037B604FF05B
:101F240000024FF00003D7E9004529468B02214601
:101F340043EA915321468A02104619467B6B0022DC
:101F4400BB60FA60D7E90223FEF742F902460B466A
:101F54001346FB630B4B5B681B0C03F00303013359
:101F64005B003B63FA6B3B6BB2FBF3F3BB6302E0D6
:101F7400054BBB6300BFBB6B18464037BD46BDE88D
:101F8400B08F00BF003802400024F40040787D0187
:101F940080B400AF034B1B681846BD465DF8047B54
:101FA400704700BF0000002080B500AFFFF7F0FFCE
:101FB4000246054B9B689B0A03F007030349CB5C6D
:101FC40022FA03F3184680BD0038024068B20008C4
:101FD40080B500AFFFF7DCFF0246054B9B685B0B47
:101FE40003F007030349CB5C22FA03F3184680BDD0
:101FF4000038024068B2000880B582B000AF786053
:102004007B68002B01D1012341E07B6893F83D30CC
:10201400DBB2002B06D17B68002283F83C20786871
:10202400FEF79AFE7B68022283F83D207B681A68DB
:102034007B6804331946104600F05EFA7B6801227F
:1020440083F846207B68012283F83E207B680122C6
:1020540083F83F207B68012283F840207B680122BB
:1020640083F841207B68012283F842207B680122A7
:1020740083F843207B68012283F844207B68012293
:1020840083F845207B68012283F83D20002318460D
:102094000837BD4680BD000080B485B000AF7860CD
:1020A4007B6893F83D30DBB2012B01D0012344E07F
:1020B4007B68022283F83D207B681B68DA687B68B2
:1020C4001B6842F00102DA607B681B681E4A934277
:1020D40018D07B681B68B3F1804F13D07B681B68F2
:1020E4001A4A93420ED07B681B68194A934209D05E
:1020F4007B681B68174A934204D07B681B68164AA6
:10210400934211D17B681B689B6803F00703FB6053
:10211400FB68062B10D07B681B681A687B681B68F9
:1021240042F001021A6007E07B681B681A687B684A
:102134001B6842F001021A60002318461437BD469A
:102144005DF8047B704700BF0000014000040040BC
:1021540000080040000C00400040014080B582B0FF
:1021640000AF78607B68002B01D1012341E07B68DC
:1021740093F83D30DBB2002B06D17B68002283F854
:102184003C20786800F039F87B68022283F83D200F
:102194007B681A687B6804331946104600F0ACF972
:1021A4007B68012283F846207B68012283F83E2065
:1021B4007B68012283F83F207B68012283F840205A
:1021C4007B68012283F841207B68012283F8422046
:1021D4007B68012283F843207B68012283F8442032
:1021E4007B68012283F845207B68012283F83D2027
:1021F400002318460837BD4680BD80B483B000AFC5
:10220400786000BF0C37BD465DF8047B704780B52D
:1022140084B000AF78607B681B68DB68FB607B6818
:102224001B681B69BB60BB6803F00203002B20D052
:10223400FB6803F00203002B1BD07B681B686FF064
:1022440002021A617B6801221A777B681B689B690A
:1022540003F00303002B03D0786800F02FF905E0A6
:10226400786800F021F9786800F032F97B68002280
:102274001A77BB6803F00403002B20D0FB6803F03B
:102284000403002B1BD07B681B686FF004021A61E7
:102294007B6802221A777B681B689B6903F440738E
:1022A400002B03D0786800F009F905E0786800F0A5
:1022B400FBF8786800F00CF97B6800221A77BB6899
:1022C40003F00803002B20D0FB6803F00803002B65
:1022D4001BD07B681B686FF008021A617B680422BC
:1022E4001A777B681B68DB6903F00303002B03D0B8
:1022F400786800F0E3F805E0786800F0D5F87868CD
:1023040000F0E6F87B6800221A77BB6803F010033C
:10231400002B20D0FB6803F01003002B1BD07B683C
:102324001B686FF010021A617B6808221A777B68B9
:102334001B68DB6903F44073002B03D0786800F05A
:10234400BDF805E0786800F0AFF8786800F0C0F8F0
:102354007B6800221A77BB6803F00103002B0CD0C2
:10236400FB6803F00103002B07D07B681B686FF048
:1023740001021A617868FEF723F9BB6803F0800351
:10238400002B0CD0FB6803F08003002B07D07B6884
:102394001B686FF080021A61786800F0C9FABB68A4
:1023A40003F04003002B0CD0FB6803F04003002B28
:1023B40007D07B681B686FF040021A61786800F0F0
:1023C40091F8BB6803F02003002B0CD0FB6803F0EA
:1023D4002003002B07D07B681B686FF020021A6172
:1023E400786800F09BFA00BF1037BD4680BD00003E
:1023F40080B586B000AFF860B9607A600023FB75E1
:10240400FB6893F83C30012B01D1022348E0FB68C0
:10241400012283F83C207B680C2B39D801A252F8A6
:1024240023F000BF5D2400089524000895240008CB
:10243400952400086B2400089524000895240008BE
:1024440095240008792400089524000895240008A0
:102454009524000887240008FB681B68B96818469F
:1024640000F0D0F817E0FB681B68B968184600F064
:102474002FF910E0FB681B68B968184600F094F95E
:1024840009E0FB681B68B968184600F0F7F902E038
:102494000123FB7500BFFB68002283F83C20FB7D11
:1024A40018461837BD4680BD80B483B000AF78604D
:1024B40000BF0C37BD465DF8047B704780B483B021
:1024C40000AF786000BF0C37BD465DF8047B7047F1
:1024D40080B483B000AF786000BF0C37BD465DF8B0
:1024E400047B704780B483B000AF786000BF0C37C2
:1024F400BD465DF8047B704780B485B000AF78605A
:1025040039607B681B68FB607B68374A93420FD055
:102514007B68B3F1804F0BD07B68344A934207D079
:102524007B68334A934203D07B68324A934208D192
:10253400FB6823F07003FB603B685B68FA68134335
:10254400FB607B68284A93421BD07B68B3F1804FC1
:1025540017D07B68254A934213D07B68244A934260
:102564000FD07B68234A93420BD07B68224A934264
:1025740007D07B68214A934203D07B68204A934268
:1025840008D1FB6823F44073FB603B68DB68FA689E
:102594001343FB60FB6823F080023B685B691343D1
:1025A400FB603B689A687B68DA623B681A687B6800
:1025B4009A627B680C4A934203D13B681A697B6830
:1025C4001A637B681B6843F004027B681A607B68AB
:1025D40001225A617B68FA681A6000BF1437BD464D
:1025E4005DF8047B704700BF000001400004004018
:1025F40000080040000C004000400140004401403D
:102604000048014080B487B000AF786039607B68CF
:102614001B6A7B617B681B6A23F001027B681A6278
:102624007B685B683B617B689B69FB60FB6823F0AC
:102634007003FB60FB6823F00303FB603B681B68CB
:10264400FA681343FB607B6923F002037B613B68F8
:102654009B687A6913437B617B681C4A93420CD163
:102664007B6923F008037B613B68DB687A69134369
:102674007B617B6923F004037B617B68134A93428B
:1026840011D13B6923F480733B613B6923F40073EC
:102694003B613B685B693A6913433B613B689B69F7
:1026A4003A6913433B617B683A695A607B68FA680C
:1026B4009A613B685A687B685A637B687A691A62D4
:1026C40000BF1C37BD465DF8047B70470000014025
:1026D40080B487B000AF786039607B681B6A7B6127
:1026E4007B681B6A23F010027B681A627B685B6854
:1026F4003B617B689B69FB60FB6823F4E043FB6000
:10270400FB6823F44073FB603B681B681B02FA6898
:102714001343FB607B6923F020037B613B689B6868
:102724001B017A6913437B617B681E4A93420DD176
:102734007B6923F080037B613B68DB681B017A695A
:1027440013437B617B6923F040037B617B68154AFB
:10275400934213D13B6923F480633B613B6923F4C7
:1027640000633B613B685B699B003A6913433B61CF
:102774003B689B699B003A6913433B617B683A69F8
:102784005A607B68FA689A613B685A687B689A6306
:102794007B687A691A6200BF1C37BD465DF8047B0A
:1027A400704700BF0000014080B487B000AF78607C
:1027B40039607B681B6A7B617B681B6A23F48072C7
:1027C4007B681A627B685B683B617B68DB69FB60E2
:1027D400FB6823F07003FB60FB6823F00303FB60DA
:1027E4003B681B68FA681343FB607B6923F400733E
:1027F4007B613B689B681B027A6913437B617B683E
:102804001D4A93420DD17B6923F400637B613B68CD
:10281400DB681B027A6913437B617B6923F4806361
:102824007B617B68144A934213D13B6923F4805340
:102834003B613B6923F400533B613B685B691B01CB
:102844003A6913433B613B689B691B013A69134333
:102854003B617B683A695A607B68FA68DA613B6875
:102864005A687B68DA637B687A691A6200BF1C372E
:10287400BD465DF8047B70470000014080B487B01A
:1028840000AF786039607B681B6A3B617B681B6AB8
:1028940023F480527B681A627B685B687B617B6887
:1028A400DB69FB60FB6823F4E043FB60FB6823F413
:1028B4004073FB603B681B681B02FA681343FB60B0
:1028C4003B6923F400533B613B689B681B033A69F3
:1028D40013433B617B68104A934209D17B6923F41B
:1028E40080437B613B685B699B017A6913437B612D
:1028F4007B687A695A607B68FA68DA613B685A686F
:102904007B681A647B683A691A6200BF1C37BD464B
:102914005DF8047B704700BF0000014080B483B0C1
:1029240000AF786000BF0C37BD465DF8047B70478C
:1029340080B483B000AF786000BF0C37BD465DF84B
:10294400047B704780B582B000AF78607B68002B51
:1029540001D1012342E07B6893F84130DBB2002BC4
:1029640006D17B68002283F840207868FEF770FA6D
:102974007B68242283F841207B681B68DA687B68C3
:102984001B6822F40052DA60786800F07FFD7B68EF
:102994001B681A697B681B6822F490421A617B6881
:1029A4001B685A697B681B6822F02A025A617B689B
:1029B4001B68DA687B681B6842F40052DA607B6843
:1029C40000225A647B68202283F841207B682022FD
:1029D40083F842207B6800225A6300231846083794
:1029E400BD4680BD80B58AB002AFF860B9603B6077
:1029F4001346FB8000237B61FB6893F84130DBB214
:102A0400202B75D1BB68002B02D0FB88002B01D191
:102A140001236EE0FB6800225A64FB68212283F8DC
:102A24004120FEF729FB7861FB68FA889A84FB68E9
:102A3400FA88DA84FB689B68B3F5805F08D1FB6889
:102A44001B69002B04D10023FB61BB68BB6103E05D
:102A5400BB68FB610023BB612EE03B6800937B698C
:102A640000228021F86800F01DFB0346002B05D0EE
:102A7400FB68202283F8412003233AE0FB69002B02
:102A84000BD1BB691B881A46FB681B68C2F308029A
:102A94005A60BB690233BB6107E0FB691A78FB68C3
:102AA4001B685A60FB690133FB61FB68DB8C9BB2DA
:102AB400013B9AB2FB68DA84FB68DB8C9BB2002B87
:102AC400CBD13B6800937B6900224021F86800F079
:102AD400E9FA0346002B05D0FB68202283F8412045
:102AE400032306E0FB68202283F84120002300E052
:102AF400022318462037BD4680BD000080B5BAB019
:102B040000AF78607B681B681B68C7F8E4307B689B
:102B14001B68DB68C7F8E0307B681B685B69C7F833
:102B2400DC300023C7F8D8300023C7F8D430D7F8F6
:102B3400E43003F00F03C7F8D830D7F8D830002BAF
:102B44000FD1D7F8E43003F02003002B09D0D7F8D5
:102B5400E03003F02003002B03D0786800F0D7FBAB
:102B640073E2D7F8D830002B00F0DE80D7F8DC30E1
:102B740003F00103002B06D1D7F8E03003F490737F
:102B8400002B00F0D180D7F8E43003F00103002BD0
:102B94000BD0D7F8E03003F48073002B05D07B68AA
:102BA4005B6C43F001027B685A64D7F8E43003F0AD
:102BB4000403002B0BD0D7F8DC3003F00103002B07
:102BC40005D07B685B6C43F002027B685A64D7F8DB
:102BD400E43003F00203002B0BD0D7F8DC3003F011
:102BE4000103002B05D07B685B6C43F004027B6817
:102BF4005A64D7F8E43003F00803002B11D0D7F857
:102C0400E03003F02003002B05D1D7F8DC3003F0CB
:102C14000103002B05D07B685B6C43F008027B68E2
:102C24005A647B685B6C002B00F00A82D7F8E430AE
:102C340003F02003002B08D0D7F8E03003F0200382
:102C4400002B02D0786800F062FB7B681B685B692C
:102C540003F04003402B0CBF01230023DBB2C7F871
:102C6400D4307B685B6C03F00803002B03D1D7F8E6
:102C7400D430002B4FD0786800F06DFA7B681B6865
:102C84005B6903F04003402B41D17B681B6814331C
:102C9400C7F89C30D7F89C3053E8003FC7F8983009
:102CA400D7F8983023F04003C7F8D0307B681B680E
:102CB4001433D7F8D020C7F8A820C7F8A430D7F821
:102CC400A410D7F8A82041E80023C7F8A030D7F80B
:102CD400A030002BD9D17B68DB6B002B13D07B6831
:102CE400DB6B8A4A1A657B68DB6B1846FEF76DFB63
:102CF4000346002B16D07B68DB6B1B6D7A68D26BA6
:102D0400104698470EE0786800F0B6F90AE0786853
:102D140000F0B2F906E0786800F0AEF97B680022B2
:102D24005A648DE100BF8BE17B681B6B012B40F083
:102D34006781D7F8E43003F01003002B00F06081C2
:102D4400D7F8E03003F01003002B00F05981002382
:102D5400BB607B681B681B68BB607B681B685B6827
:102D6400BB60BB687B681B685B6903F04003402B56
:102D740040F0CE807B68DB6B1B685B68A7F8BE30D5
:102D8400B7F8BE30002B00F0A9807B689B8DB7F8A4
:102D9400BE209A4280F0A2807B68B7F8BE20DA8514
:102DA4007B68DB6BDB69B3F5807F00F088807B6830
:102DB4001B680C33C7F88830D7F8883053E8003FD5
:102DC400C7F88430D7F8843023F48073C7F8B83058
:102DD4007B681B680C33D7F8B820C7F89420C7F871
:102DE4009030D7F89010D7F8942041E80023C7F822
:102DF4008C30D7F88C30002BD9D17B681B68143306
:102E04007B677B6F53E8003F3B673B6F23F0010315
:102E1400C7F8B4307B681B681433D7F8B420C7F8FC
:102E24008020FB67F96FD7F8802041E80023BB6757
:102E3400BB6F002BE1D17B681B6814333B663B6E90
:102E440053E8003FFB65FB6D23F04003C7F8B03047
:102E54007B681B681433D7F8B020FA66BB66B96E7A
:102E6400FA6E41E800237B667B6E002BE3D17B681E
:102E7400202283F842207B6800221A637B681B6847
:102E84000C33FB64FB6C53E8003FBB64BB6C23F066
:102E94001003C7F8AC307B681B680C33D7F8AC2040
:102EA400BA657B65796DBA6D41E800233B653B6D7E
:102EB400002BE3D17B68DB6B1846FEF716FA7B68C0
:102EC40002225A637B689A8D7B68DB8D9BB2D31A8E
:102ED4009BB21946786800F0D9F8B3E07B689B8D03
:102EE400B7F8BE209A4240F0AD807B68DB6BDB69AB
:102EF400B3F5807F40F0A6807B6802225A637B682A
:102F04009B8D1946786800F0C1F89BE021320008D7
:102F14007B689A8D7B68DB8D9BB2D31AA7F8CE3081
:102F24007B68DB8D9BB2002B00F08E80B7F8CE302F
:102F3400002B00F089807B681B680C33BB63BB6B80
:102F440053E8003F7B637B6B23F49073C7F8C8306E
:102F54007B681B680C33D7F8C8207A643B64396CEF
:102F64007A6C41E80023FB63FB6B002BE3D17B68A5
:102F74001B6814337B627B6A53E8003F3B623B6A05
:102F840023F00103C7F8C4307B681B681433D7F8F7
:102F9400C4203A63FB62F96A3A6B41E80023BB62DE
:102FA400BB6A002BE3D17B68202283F842207B6834
:102FB40000221A637B681B680C333B613B6953E84E
:102FC400003FFB60FB6823F01003C7F8C0307B6848
:102FD4001B680C33D7F8C020FA61BB61B969FA6980
:102FE40041E800237B617B69002BE3D17B680222EB
:102FF4005A63B7F8CE301946786800F047F823E0F2
:10300400D7F8E43003F08003002B09D0D7F8E03080
:1030140003F08003002B03D0786800F010F914E06B
:10302400D7F8E43003F04003002B0ED0D7F8E0309B
:1030340003F04003002B08D0786800F050F904E056
:1030440000BF02E000BF00E000BFE837BD4680BD1E
:1030540080B483B000AF786000BF0C37BD465DF824
:10306400047B704780B483B000AF786000BF0C3736
:10307400BD465DF8047B704780B483B000AF7860D0
:1030840000BF0C37BD465DF8047B704780B483B045
:1030940000AF78600B467B8000BF0C37BD465DF8FF
:1030A400047B704780B586B000AFF860B9603B60C0
:1030B4001346FB713BE03B6AB3F1FF3F37D0FDF7AA
:1030C400DBFF02463B68D31A3A6A9A4202D33B6A50
:1030D400002B01D103233AE0FB681B68DB6803F093
:1030E4000403002B23D0BB68802B20D0BB68402B6B
:1030F4001DD0FB681B681B6803F00803082B16D15E
:1031040000237B61FB681B681B687B61FB681B6891
:103114005B687B617B69F86800F01DF8FB68082236
:103124005A64FB68002283F8402001230FE0FB6807
:103134001B681A68BB681340BA689A420CBF012323
:103144000023DBB21A46FB799A42B4D00023184616
:103154001837BD4680BD80B495B000AF78607B68F9
:103164001B680C337B637B6B53E8003F3B633B6B17
:1031740023F49073FB647B681B680C33FA6C3A6429
:10318400FB63F96B3A6C41E80023BB63BB6B002B18
:10319400E5D17B681B6814333B623B6A53E8003F0C
:1031A400FB61FB6923F00103BB647B681B68143378
:1031B400BA6CFA62BB62B96AFA6A41E800237B62BC
:1031C4007B6A002BE5D17B681B6B012B19D17B68D3
:1031D4001B680C33FB60FB6853E8003FBB60BB68B3
:1031E40023F010037B647B681B680C337A6CBA6130
:1031F4007B617969BA6941E800233B613B69002B33
:10320400E5D17B68202283F842207B6800221A6380
:1032140000BF5437BD465DF8047B704780B584B069
:1032240000AF78607B689B6BFB60FB680022DA85EB
:10323400F868FFF721FF00BF1037BD4680BD80B49A
:1032440085B000AF78607B6893F84130DBB2212B06
:103254003ED17B689B68B3F5805F14D17B681B69A2
:10326400002B10D17B681B6AFB60FB681B881A4625
:103274007B681B68C2F308025A607B681B6A9A1C4D
:103284007B681A6208E07B681B6A591C7A681162C1
:103294001A787B681B685A607B68DB8C9BB2013BA5
:1032A4009BB27A681946D184002B0FD17B681B68C6
:1032B400DA687B681B6822F08002DA607B681B682E
:1032C400DA687B681B6842F04002DA60002300E0A1
:1032D400022318461437BD465DF8047B704780B559
:1032E40082B000AF78607B681B68DA687B681B6813
:1032F40022F04002DA607B68202283F8412078685B
:10330400FFF7A6FE002318460837BD4680BD80B5EA
:103314008CB000AF78600023FB620023BB627B6843
:1033240093F84230DBB2222B40F0AA807B689B6882
:10333400B3F5805F15D17B681B69002B11D17B68C5
:103344009B6ABB627B681B685B689BB2C3F3080320
:103354009AB2BB6A1A807B689B6A9A1C7B689A62E1
:1033640024E07B689B6AFB627B689B68B3F5805FA3
:1033740007D07B689B68002B0AD17B681B69002BF4
:1033840006D17B681B685B68DAB2FB6A1A7008E0D6
:103394007B681B685B68DBB203F07F03DAB2FB6A0D
:1033A4001A707B689B6A5A1C7B689A627B68DB8D07
:1033B4009BB2013B9BB27A681946D185002B5DD143
:1033C4007B681B68DA687B681B6822F02002DA607D
:1033D4007B681B68DA687B681B6822F48072DA6099
:1033E4007B681B685A697B681B6822F001025A617A
:1033F4007B68202283F842207B6800225A637B6822
:103404001B6B012B35D17B6800221A637B681B6818
:103414000C337B617B6953E8003F3B613B6923F0DC
:1034240010037B627B681B680C337A6A3A62FB6127
:10343400F9693A6A41E80023BB61BB69002BE5D115
:103444007B681B681B6803F01003102B0AD1002350
:10345400FB607B681B681B68FB607B681B685B68A0
:10346400FB60FB687B689B8D19467868FFF70EFE4E
:1034740002E07868FFF7F6FD002302E0002300E095
:10348400022318463037BD4680BD00002DE9B04FF9
:10349400C0B000AFC7F8F400D7F8F4301B681B695C
:1034A40023F44050D7F8F430D968D7F8F4301A68C8
:1034B40040EA01031361D7F8F4309A68D7F8F4307E
:1034C4001B691A43D7F8F4305B691A43D7F8F43010
:1034D400DB691343C7F8F830D7F8F4301B68DB68AE
:1034E40023F4164121F00C01D7F8F4301A68D7F808
:1034F400F8300B43D360D7F8F4301B685B6923F4CE
:103504004070D7F8F4309969D7F8F4301A6840EA73
:1035140001035361D7F8F4301A688F4B9A4205D0EF
:10352400D7F8F4301A688D4B9A4204D1FEF750FD57
:10353400C7F8FC0003E0FEF737FDC7F8FC00D7F836
:10354400F430DB69B3F5004F40F00C81D7F8FC3060
:103554000022C7F8E830C7F8EC20D7E93A452246FC
:103564002B469118B9655B41FB65D7E916232146C3
:1035740012EB0108294643EB01094FF000024FF01A
:1035840000034FEAC90343EA58734FEAC80290465E
:103594009946234618EB0303C7F8E0302B4649EB62
:1035A4000303C7F8E430D7F8F4305B680022C7F8A7
:1035B400D830C7F8DC20D7E936120B46DB183B6558
:1035C400134642EB03037B65D7E91423D7E938019B
:1035D400FCF7FEFD02460B46614BA3FB02235B098D
:1035E4001C01D7F8FC300022C7F8D030C7F8D4202B
:1035F400D7E9348942464B469118B9645B41FB6470
:10360400D7E91223414612EB010A494643EB010B69
:103614004FF000024FF000034FEACB0343EA5A7322
:103624004FEACA0292469B4643461AEB0303C7F885
:10363400C8304B464BEB0303C7F8CC30D7F8F43013
:103644005B680022C7F8C030C7F8C420D7E930123D
:103654000B46DB183B64134642EB03037B64D7E958
:103664001023D7E93201FCF7B3FD02460B4611469D
:103674003B4BA3FB01235B09642202FB03F3CB1A3C
:10368400DB0003F13202364BA3FB02235B095B0030
:1036940003F4F8731C44D7F8FC300022C7F8B830A0
:1036A400C7F8BC20D7E92E8942464B469118B96326
:1036B4005B41FB63D7E90E23414651183963494600
:1036C4004B417B634FF000024FF00003D7E90CAB92
:1036D4005946CB00514643EA51735146CA0010463D
:1036E4001946034642469B18C7F8B0304B460A4673
:1036F40042EB0303C7F8B430D7F8F4305B68002218
:10370400C7F8A830C7F8AC20D7E92A120B46DB1853
:10371400BB62134642EB0303FB62D7E90A23D7E9F2
:103724002C01FCF755FD02460B460D4BA3FB02137F
:103734005B09642101FB03F3D31ADB003233084A2B
:10374400A2FB03235B0903F00702D7F8F4301B68DC
:1037540022449A6006E100BF0010014000140140B9
:103764001F85EB51D7F8FC300022C7F8A030C7F80A
:10377400A420D7E9288942464B46911839625B4117
:103784007B62D7E9082341465418494643EB0105B7
:103794004FF000024FF00003EB0043EA5473E200E1
:1037A40014461D464346E318C7F898304B4645EB8C
:1037B4000303C7F89C30D7F8F4305B680022C7F8DD
:1037C4009030C7F894204FF000024FF00003D7E97F
:1037D400244529468B00214643EA917321468A00F9
:1037E400D7E92601FCF7F4FC02460B46604BA3FB29
:1037F40002235B091C01D7F8FC300022C7F888308B
:10380400C7F88C20D7E9228942464B469118B96102
:103814005B41FB61D7E906234146511839614946AA
:103824004B417B614FF000024FF00003D7E904AB3A
:103834005946CB00514643EA51735146CA001046DB
:103844001946034642469B18C7F880304B460A4641
:1038540042EB0303C7F88430D7F8F4305B680022E6
:10386400BB67FA674FF000024FF00003D7E91E89E7
:1038740049468B00414643EA917341468A00D7E9A1
:103884002001FCF7A5FC02460B461146384BA3FB6E
:1038940001235B09642202FB03F3CB1A1B013233BD
:1038A400334AA2FB03235B0903F0F0031C44D7F85B
:1038B400FC3000223B677A67D7E91C8942464B46B5
:1038C4009118B9605B41FB60D7E902234146511866
:1038D400396049464B417B604FF000024FF00003D2
:1038E400D7E900AB5946CB00514643EA51735146E0
:1038F400CA0010461946034642469B18BB664B460F
:103904000A4642EB0303FB66D7F8F4305B680022F7
:103914003B667A664FF000024FF00003D7E918893E
:1039240049468B00414643EA917341468A00D7E9F0
:103934001A01FCF74DFC02460B460D4BA3FB021388
:103944005B09642101FB03F3D31A1B013233084AD8
:10395400A2FB03235B0903F00F02D7F8F4301B68C2
:1039640022449A6000BF07F58077BD46BDE8B08F5A
:103974001F85EB5180B582B000AF786039603A683A
:103984000121594800F06AFB0346002B00F0A28095
:10399400554B1B6803F59163544A9360524B1B6863
:1039A40003F59163514AD3604F4B1B6803F2EC4318
:1039B4004F4A93604C4B1B6803F2EC434C4AD36070
:1039C400494B1B6803F5D0634A4A9360464B1B6816
:1039D40003F5D063474AD360434B1B6803F5D063B8
:1039E400454A9360404B1B6803F5D063424AD36059
:1039F4003D4B1B6803F5C863404A93603A4B1B6810
:103A040003F5C8633D4AD360374B1B6803F51A635B
:103A14003B4A9360344B1B6803F51A63384AD360FE
:103A2400314B1B68374A93602F4B1B68354AD36070
:103A34002D4B1B6803F5C863334A93602A4B1B68FC
:103A440003F5C863304AD360274B1B682F4A936041
:103A5400254B1B682D4AD360234B1B6820332C4A0B
:103A64009360214B1B682033294AD3601E4B1B688B
:103A740003F5D073274A93601B4B1B6803F5D0737F
:103A8400244AD360184B1B68234A9360164B1B6867
:103A9400214AD360144B1B6803F5AC731F4A93602F
:103AA400114B1B6803F5AC731C4AD3600E4B1B68A7
:103AB4001B4A93600C4B1B68194AD3600A4B1B6862
:103AC4007C33184A9360084B1B687C33154AD360D7
:103AD400012305E013223021786800F041FB002324
:103AE40018460837BD4680BD582F00200C00002022
:103AF4002C0100201C0000202C0000203C00002091
:103B04003C0100204C0000205C0000206C000020E0
:103B14004C0100207C0000205C0100208C0000206F
:103B24006C0100209C00002080B582B000AF78605A
:103B340039603A6801214E4800F03EFA0346002BF2
:103B440000F08C804B4B1B6843F08043494A136060
:103B5400474B1B68474A9360454B1B68454AD360F3
:103B6400454B1B6843F08043434A1360404B1B683A
:103B74005033414A93603E4B1B6850333E4AD360F6
:103B84003E4B1B6843F080433C4A1360384B1B6830
:103B940090333A4A9360364B1B689033374AD3606C
:103BA400374B1B6843F08043354A1360304B1B6826
:103BB40003F52963324A93602D4B1B6803F529638F
:103BC4002F4AD3602F4B1B6843F080432D4A136068
:103BD400274B1B6803F531632A4A9360244B1B6807
:103BE40003F53163274AD360274B1B6843F08043B6
:103BF400254A13601E4B1B6803F57163224A9360C8
:103C04001B4B1B6803F571631F4AD3601F4B1B6872
:103C140043F080431D4A1360154B1B6803F5796319
:103C24001A4A9360124B1B6803F57963174AD360F1
:103C3400174B1B6843F08043154A13600C4B1B68F9
:103C440003F598531033124A9360094B1B6803F52C
:103C5400985310330E4AD360012305E01222302119
:103C6400786800F07DFA002318460837BD4680BD09
:103C74005C2F0020AC000020BC000020CC00002001
:103C8400DC000020EC000020FC0000200C010020DF
:103C94001C01002080B582B000AF7860786800F025
:103CA40053FA034618460837BD4680BD80B584B034
:103CB40002AF786039600023019305230093012348
:103CC400044A3968786800F039FB03461846083717
:103CD400BD4680BDF40B002080B594B000AFF86001
:103CE400B9607A600021F868FFF7E0FF0346BB641F
:103CF40097F84830002B01D0BB6C67E007F1100344
:103D0400184600F0E7F8034683F00103DBB2002B0A
:103D140008D0FB681B681846FFF7BCFF0346BB646A
:103D2400BB6C53E00023A7F84E3012E0B7F84E10F6
:103D3400B7F84E309B00BA6813441A6807F11003B1
:103D44000C33184600F02AF9B7F84E300133A7F8BF
:103D54004E30BB68002B04D0FB8BB7F84E209A4240
:103D6400E4D30023A7F84C3012E0B7F84C10B7F8AE
:103D74004C309B007A6813441A6807F1100304332B
:103D8400184600F00BF9B7F84C300133A7F84C3063
:103D94007B68002B04D0FB8AB7F84C209A42E4D30A
:103DA400FB681B6807F110021146184600F046F83C
:103DB400034683F00103DBB2002B06D0FB681B68CB
:103DC4001846FFF767FF0346BB64BB6C18465037C1
:103DD400BD4680BD80B582B000AF786039607B6835
:103DE400002B04D1064B7B607B68064A1A60396855
:103DF400786800F0BBF9034618460837BD4680BD15
:103E0400F40B00200001C0A180B582B000AF78603F
:103E140039607B68002B04D1064B7B607B68064AC3
:103E24001A603968786800F017FA034618460837AC
:103E3400BD4680BDF40B00200001C0A180B584B054
:103E440000AF786039603968786800F0B9FAF860D2
:103E54000123FB72FB68002B01D1002326E03968A3
:103E6400F868FFF761FE03461A46FB7A1340002BFD
:103E740014BF01230023FB723968F868FFF77AFD49
:103E840003461A46FB7A1340002B14BF0123002378
:103E9400FB72786800F02CFB03461A46FB7A134049
:103EA400002B14BF01230023FB72FB7A1846103742
:103EB400BD4680BD80B584B000AFF860B9607A605B
:103EC4007A68B968F86800F041FB03461846103771
:103ED400BD4680BD80B586B000AF78607B68002B9E
:103EE40001D1002316E00D4A07F1100392E8030004
:103EF40083E803000A4A07F1080392E8030083E811
:103F0400030007F1100207F108031946786800F06E
:103F1400F9F8034618461837BD4680BD28B2000894
:103F240030B2000860B330B40368164D846923F0DE
:103F34007E4323F40003AB4262681BD0037D4169D6
:103F4400A3F10103B3FA83F35B09B3EB112FC1F3BC
:103F540017200BDA012B02D1022807D0022354F8D0
:103F640023100133984201FB02F2F3D122EAE270FA
:103F740030BC70470029E1D01F3222F01F02DDE778
:103F8400704700BFC000040038B1436823B14088C3
:103F9400003818BF012070471846704758B143686D
:103FA40043B1408838B1C1EBC10103EB8103012067
:103FB4005A60704718467047F2B1F8B50546C8B163
:103FC4000C46B9B1244B1168994216460BD0566879
:103FD40086B137689F4211D00660A4F10100B0FA9F
:103FE40080F04009F8BD101DFFF7CEFF10B1F38833
:103FF4009C421BD00020F8BD002070473146043895
:10400400002304E001339C4240F8042F05D051F80A
:10401400042FBA42F6D19C42ECD101340E4B56F82F
:104024002400C01AB0FA80F04009F8BD0021281F0E
:104034008C4605E00CF1010C644540F8043F05D0C2
:10404400B3680B441C315B68002BF3D1A4EB0C0068
:10405400B0FA80F04009F8BDDECAFAA1FAB1F8B5A9
:104064000546D0B10C46C1B1254B1168994216469C
:104074000BD0166A8EB137689F4212D00660A4F145
:104084000100B0FA80F04009F8BD02F10C00FFF71E
:104094007BFF10B1F3899C421BD00020F8BD0020A7
:1040A400704731460438002304E001339C4240F851
:1040B400042F05D051F8042FBA42F6D19C42ECD11A
:1040C40001340F4B56F82400C01AB0FA80F04009AE
:1040D400F8BD0021281F8C4605E00CF1010C644555
:1040E40040F8043F05D033690B441C315B68002B56
:1040F400F3D1A4EB0C00B0FA80F04009F8BD00BF86
:10410400DECAFAA1A0B1B1B1C2B110B403460D4CDC
:1041140043F8044B00F10C0C03C983E8030092E854
:1041240003008CE80300012318465DF8044B704734
:104134000346184670470B46184670471346184600
:10414400704700BFDECAFAA1044B0268934302D150
:104154000C3000F019BC41F2100070470001C0A1FE
:1041640010B10C3000F016BC704700BF394B026828
:10417400934363D12DE9F04F038E85B005460C4679
:10418400002B4ED0476B002F4BD04FF0000BCDE9E6
:1041940002015E46BA4616E0019901227A50A169ED
:1041A4004C6828604FF001022A756869AB6068F3B7
:1041B4001F200023C5E90334C5E90509C5F804C077
:1041C40001360BF11C0BBAF80030F200B342019235
:1041D40036D9DAF80430002B32D053F826407CB3B9
:1041E400DAF80830A269D4F80C901068D3E90157C2
:1041F400A368C3F3172805F071F9A16907EBC60397
:10420400D1F808C05D44002BCAD0002147F836100D
:104214002168596011B149880029BDD1A1690023E1
:10422400BEE71822112105F10C00002600F0B2FBB4
:10423400304604B1268005B0BDE8F08F00207047F9
:10424400B6B2DDE90254002EEBD0DAF80830586833
:10425400EFE700BF0001C0A1374B0268934369D167
:104264002DE9F04F038E012B85B005460C464BD942
:10427400476B4FF0000BCDE902015E46D846BA46C3
:1042840016E0019901227A50A9694D6820604FF027
:10429400010222756069C4F804C069F31F20C4E9EF
:1042A4000450C4E90238009BA36101360BF11C0BD6
:1042B400BAF80C30F200B342019232D9DAF8103075
:1042C4007BB353F8265065B3DAF81430AA69D3E9FE
:1042D4000147AB681068C3F31729EB68009305F036
:1042E400FDF8A96907EBC603D1F808C05C44002BAC
:1042F400CBD047F836802968596011B14988002924
:10430400BFD1A9690023C0E71822112105F10C00CF
:10431400002600F03FFB304604B1268005B0BDE81E
:10432400F08FB6B2DDE90254002EEDD0DAF8143085
:104334005868F1E7002070470001C0A12DE9F0435F
:1043440083B09DF828809DF82C9020B30260164617
:104354001F46044600F016FB70B930250023236085
:1043640010244A464146384605F058F9B06045EAFB
:10437400042003B0BDE8F08300224146384605F02E
:104384004DF9002205460521012005F047F9854233
:1043940008D00125E2E710252C4645EA042003B0A5
:1043A400BDE8F083054B019301A800F0FFFA10B1BA
:1043B40000242546D5E70225D0E700BF0384048402
:1043C4002DE9F843484A044600680B4600EA020116
:1043D40082433BD1002B78D0444A1D6895420AD1D0
:1043E4008842D3E90325D3E901633DD00323236144
:1043F4002046BDE8F883012118461D46D3F8048001
:10440400FFF790FD05F11C07064601213846D5F853
:104414002090FFF787FD002E0ABF31460121354663
:10442400B0B1B9F1000F57D04FF0010EB8F1000F41
:1044340011D02D4B22689A42D8D1638C8B421BD267
:104444001222162104F10C0000F0A4FA0020D0E797
:1044540007468646EAE7002EEBD01222102104F12B
:104464000C0000F097FAF1E7C4E90863E562A26280
:10447400204600F0C5FAB9E7E1B1AC46BCE80F004C
:10448400656A0FC59CE8070085E80700638D4FF453
:1044940080367345266211D3BEF1000F07D03E4625
:1044A4000FCEE56A0FC596E8070085E807004FEAD6
:1044B4000E42DCE7638D21627345EDD2132216218F
:1044C40004F10C0000F066FAC0E71122102104F197
:1044D4000C0000F05FFAB9E71322102104F10C007C
:1044E40000F058FAB2E700BF0001C0A1DECAFAA189
:1044F400154B026802EA0301934323D170B50369A3
:104504009B07044603D58A4208D0012070BD1022BF
:1045140011210C3000F03EFA002070BD00F080FA4A
:10452400266C002EF1D0A56B002DEED0626C2946CE
:104534000020B0472B69AB42E7D0002BE5D0266CB6
:104544001D46F3E7002070470001C0A12DE9F04F9C
:10455400B74B07460068834385B040F02D813B8EFE
:10456400002B00F01D813B69D7F8349003F003035E
:104574000026032BBE6140F02981002900F016813A
:10458400B9F1000F00F01281B9F80030002B00F0EF
:104594000D818B69CDE90272D3F800B00C46D9F8CD
:1045A4000430002B72D053F82650002D6ED0D9F869
:1045B4000830D3F800A033011AEB0618019300F079
:1045C400BA81AB69012120465F68FFF7ABFC8742E3
:1045D400C0F00381E868A169C268CB689A4240F0E0
:1045E400FC8082688B689A4240F0F78042684B688E
:1045F4009A4240F0F280AB69D3E9000104F0FCFF79
:104604000190284605F010F8019B8342C0F0E58034
:10461400AB69186804F062FF2368584030F07E43A9
:1046240040F093816368002B00F08581A3691B68C7
:10463400002B00F082819B45284638BF9B4604F03E
:10464400F3FFC8F80800A3691B6800FB03F3C8F86C
:104654000C306168C8F8041032010B444AF8023087
:10466400A86903689A0006F1010604F11C0400F12C
:10467400A780D0E902329B1A19448160AB69D8F84B
:104684000420DA60B9F80030B34288D8DDE9027852
:104694003B8EB8F1000F00F0B580012B40F2A580ED
:1046A400D7F83490B9F80C30002B00F09E804546C2
:1046B4000026D9F81030002B00F0A38053F82640D0
:1046C400002C00F09E80D9F81430D3F800A03301F8
:1046D4001AEB0618019300F04081A36901215B687D
:1046E40001932846FFF71EFC019B83427DD3E068BB
:1046F400A969C268CB689A4277D182688B689A426A
:1047040073D142684B689A426FD1A369D3E900011F
:1047140004F072FF0190204604F086FF019B83425F
:1047240063D3A369186804F0D9FE2B68434033F0BF
:104734007E4340F019816B68002B00F00E81AB6959
:104744001B68002B00F017819B45204638BF9B4611
:1047540004F06AFFC8F80800AA691268034602FB5D
:1047640003F3C8F80C306968C8F8041032010B442C
:104774004AF80230A06903689B0006F1010605F1BE
:104784001C0539D4D0E902329B1A19448160A3690B
:10479400D8F80420DA60B9F80C309E4289D330E0AE
:1047A4003A69BB6102F00302032A0FD117221221D6
:1047B40007F10C0000F0EEF8002005B0BDE8F08F22
:1047C400B9F800309E42FFF4EAAE5FE730221121CF
:1047D40007F10C0000F0DEF8EEE7029F1822122128
:1047E40007F10C0000F0D6F8E6E71822132107F1D0
:1047F4000C0000F0CFF8DFE7B9F80C309E42FFF46C
:1048040058AF3B8E1FFA8BFBA7F818B0002B00F0B3
:104814008C80012B7E6B00F08B8006F10C08788B6A
:104824008345CAD94546BB464FF00008AEB92DE0D2
:104834000001C0A1DF68C91B0844986093696268DD
:10484400DA60D4E9013159F80A200B44934224BFB9
:10485400E368D31A636008F10108338843454FEADB
:10486400081A13D973688BB153F8282072B1B16850
:104874009369D1F800901F68996809EB0814BF0088
:104884006068D7D5A26803F07FF9DAE7584600F0EC
:10489400E5F80024B5B93BE059F80A3001EB0C0205
:1048A4009A4224BFD8F80C209A1AC8F804208169C7
:1048B400D1E90237DB1B1A448A608369D8F80420E3
:1048C400DA6001342B88A34222D96B6803B353F80E
:1048D4002400E8B1AB688269D3F80090136809EB4F
:1048E40004189B00D8E9011C4FEA041AD4D5906837
:1048F400624603F049F9D8E9013159F80A200B441A
:10490400934224BFD8F80C30D31AC8F80430D8E73F
:10491400BBF81A00BBF81830013080B28342ABF800
:104924001A0081D805B0BDE8F08F1E46984676E798
:104934004FF0000873E7029F38E7029F21221221FB
:1049440007F10C0000F026F836E7029F1922122125
:1049540007F10C0000F01EF82EE71722132107F1CF
:104964000C0000F017F827E71922132107F10C00B7
:1049740000F010F820E72122132107F10C0000F0C9
:1049840009F819E7012070470346002200681A60FD
:10499400704700BF0346007808B1002070471970C3
:1049A400196862F31F2101201960704782B0134B0C
:1049B400019318B10378032B02D0002002B0704792
:1049C4009DF80420934204D0012080F0010002B03D
:1049D400704742789DF805309A4200F10100F3D106
:1049E40010F8012F9DF806309A42EDD142789DF8D7
:1049F40007309A42E8D10020E7E700BF038404842B
:104A0400836B014653B100201A46D9601B69934257
:104A140000F1010003D0002BF6D17047184670470F
:104A240038B5846BB4B16368DB074FF0000504D577
:104A3400236A20460BB1984701352369A34207D066
:104A440033B11C466368DB07F2D42369A342F7D170
:104A5400284638BD2546284638BD00BF2DE9F0411B
:104A6400D0F84080856BC5630446B8F1000F2AD0A6
:104A74002DB3426C29460120C047E66BFEB10027E6
:104A84003146626C0220C047E56B28466B69984743
:104A94002E69626CE16BB5424FF0030007D0C0474A
:104AA4000137E663002EEBD13846BDE8F0810320E0
:104AB400C04700230137E3633846BDE8F08100278F
:104AC4003846BDE8F081002DF9D047466B69284689
:104AD40098472B462D699D4204D0E5630137002D8C
:104AE400F4D1E1E70023E3630137DDE72DE9F04F7B
:104AF4002DED028B83691C889FB00CB96368FFDEBF
:104B04005D686A6802B11268012C00F0B1802B69FB
:104B140003B11B68022C00F0AB80EE69002E00F09C
:104B2400B4802F8B3168012F40F2B1807668032C5A
:104B340000F09E80AC6A456A002C00F0AA8005B1A2
:104B440063682568B469D668DF68A4681C94B4886F
:104B54001394BC881494FC681594BC681694F46887
:104B6400D1F80CE01794048D1894848DD5F818C0EE
:104B74001994DEF808401A941568DEF804401B9472
:104B8400DCF80840D6F808B01D940E681C68002DA7
:104B940074D06F68002F71D0B5F80290B9F1000F8E
:104BA4006CD03F68D7ED008A002C64D06768002F72
:104BB40061D0B4F80290B9F1000F5CD03F6897ED72
:104BC400008AD3F8189089699369D9F8088090F815
:104BD4004170D3F80890D1F808A016B1766806B1F0
:104BE40036683DB1696800294BD06D8815B14968B4
:104BF40091F900503CB16168002944D0648814B133
:104C0400496891F90040DCE9000104F0D7FC1C9BE1
:104C14000693199B0593189B0493149BBDF85C2081
:104C24000795CDE900A31D9BCDE91003BDF85430D1
:104C34000D93BDF858300C93CDE90A78BDF868306F
:104C4400BDF86C700393CDE90846139B0297F0EE10
:104C5400480AB0EE680A1FFA8BF148460124CDE9F0
:104C64000E4400F0C3FE1FB0BDEC028BBDE8F08F14
:104C740000235B68FFDEB7EE008AA2E7F7EE008A46
:104C840092E70D46B6E70C46BDE731464FE70026EE
:104C94004DE70DB9AB69FFDEE368FFDE8369198870
:104CA40009B94B68FFDE2DE9F04F2DED028B5C68EE
:104CB4006268A3B002B11268012900F0C5802369BB
:104CC40003B11B68022900F0B680E569002D00F0ED
:104CD400B980268BD5F80080012E40F2B8806D682B
:104CE400032900F0B980A16A446A002900F0B18068
:104CF40004B14B680C68A969D668DF68896820919B
:104D0400B1881591B9881691F9681791B968189105
:104D1400D6E9021BD4F818C01991C46B018D1A91FD
:104D2400818DD8F80CE01B9121881C91A1881D91DC
:104D3400DEF808101E911568DEF804101F91DCF8E7
:104D440008101C68D8F800602191002D70D06968A3
:104D540000296DD06F88002F6AD00968D1ED008AD0
:104D6400002C62D0616800295FD06788002F5CD076
:104D7400096891ED008A9F699169D8F81830D7F8CD
:104D8400089090F841A0D1F808809F6816B1766821
:104D940006B136683DB16968002951D06D8815B1F6
:104DA400496891F900503CB16168002946D0648893
:104DB40014B1496891F90040DCE9000104F0FEFBFC
:104DC400209B08931C9B07931D9B06931B9B059399
:104DD4001A9B0493169BBDF86410CDF83490CDE96A
:104DE4000073219BBDF87C700297CDE91103BDF8D7
:104DF40078300393CDE90954BDF85C30BDF86040C8
:104E04000F930E94159BF0EE480AB0EE680A1FFA51
:104E14008BF240460124CDE90B6A109400F0C6FEE3
:104E240023B0BDEC028BBDE8F08FB7EE008AA2E799
:104E3400F7EE008A94E700235B68FFDE0C46BBE7CD
:104E44000D46B0E7A8464BE700235B68FFDE00256C
:104E540046E724B9A369FFDE00235B68FFDECB6865
:104E6400FFDE00BF826913880BB95B68FFDE506800
:104E7400416801B10968012B00F0F080026902B1B8
:104E84001268022B00F0E7802DE9F04FC5698BB062
:104E9400002D00F0A780068B2C68012E40F2C880FC
:104EA4006D68032B00F0D480AB69D768856AC86845
:104EB4009B68B0F804A0B7F804B0D1F818E00893E0
:104EC400D7E9026006FB00F0099090691DB12D68D6
:104ED4000DB1AD69AD680F681668A269DEF80810F7
:104EE400806824689268002F4BD0D7F804E0BEF1A4
:104EF400000F3ED0B7F80280B8F1000F51D1002E58
:104F040039D0D6F80490C846B9F1000F00F0978064
:104F1400B6F802C0B7EE000ABCF1000F51D1BEF1E1
:104F2400000F00F09180B7F80280B8F1000F40F054
:104F34008180F7EE000A00274EB1C846B9F1000F90
:104F44007BD0B6F802C0BCF1000F6CD1664614B138
:104F5400646804B12468089B0097CDE90545099C61
:104F6400CDE9016ACDE903B400F0F8FB0BB0BDE86C
:104F7400F08F002E38D1B7EE000A3746F0EE400A23
:104F8400E5E7002EF7D0D6F80480B8F1000F3FD043
:104F94007688B7EE000A002E41D13746F0EE400A7B
:104FA400D5E7DEF8003093ED000A56B3D6F8049046
:104FB400C846B9F1000FB2D0B6F802C0BCF1000F78
:104FC400ADD0D9F80030D3ED000ABEF1000F39D0CE
:104FD4007F88002FB1D0DEF8047097F90070002E9E
:104FE400ABD1B4E72C465CE7D6F80490C846B9F1D7
:104FF400000F8DD1B7EE000A4F46F0EE400A4E4640
:10500400A5E7DEF80470F7EE000A97F900709EE752
:10501400B7EE000A4746F0EE400A464697E7D8F84E
:105024000060D6ED000AD8F8046096F900608EE7B7
:10503400002536E7F7EE000ACDE74E4687E7B7EEE0
:10504400000A76E777467EE77746F7EE000A75E7CB
:1050540000235B68FFDE00235B68FFDE00235B68E0
:10506400FFDE00BF037F032B0BD8DFE803F0080645
:10507400040200F069B800F0F7B800F035B900F0A8
:10508400ADB870472DE9F04183691E8886B00EB92A
:105094007368FFDE5F687D6805B12D68012E4CD012
:1050A400D7F810C0BCF1000F01D0DCF800C0AB6829
:1050B4001B0A40D0EC68012204EB830353F8041D5F
:1050C4009C4201FB02F2F9D1C369032ED3F808E034
:1050D40033D9BB6A002B33D01968B0F92030896901
:1050E400DCF818008F68E968806851F82360296942
:1050F400B3EB112F3CBF696951F82330A969114DF5
:105104000C688968DEE900C824F07E44DEF808E013
:10511400009628BF0023AC42CDE903E7CDE901C8DE
:1051240004D001F04DFB06B0BDE8F08101F03EFB78
:1051340006B0BDE8F0810122C6E700235B68FFDE0C
:105144009B69FFDE40048400826913880BB95B68A5
:10515400FFDE2DE9F0435268556885B005B12D682E
:10516400012B37D013699BB3D0E90962D6E900104B
:1051740001430CB2D5E90571D3F800C08868EB6827
:105184009268D3F804E0D6F80C90DB68DCE90551AA
:10519400D7F80CC0D5F80C8089687D6844B1CDE996
:1051A40002C8CDE900E501F045FB05B0BDE8F08398
:1051B400B6F90840022CF2D10FFA89F9B9F1020FBD
:1051C400EDD1CDE902C8CDE900E501F003FBECE740
:1051D4009B69FFDE00235B68FFDE00BF82691388E2
:1051E4000BB95B68FFDE2DE9F0415268546888B062
:1051F40004B12468012B34D01369002B2FD0196813
:10520400456A826AB5F90C60A3696769D3F80080BE
:105214009268D1E90501D0E902EC0EFB06F6986824
:1052240089680696B5F904600EFB06F60596B5F98D
:1052340008600CFB06F60496B5F900500CFB05F566
:105244000395FD6802957D680195E468E46800941F
:10525400C8F3C61301F0B0FB08B0BDE8F0819B6948
:10526400FFDE00235B68FFDE826913880BB95B688D
:10527400FFDE51684A6802B11268012B30D00B6915
:1052840063B3F0B51B68456AD2F80CE0B5F9086061
:10529400906957698068DEF80C20D3E905C1DCF811
:1052A4000C40B5F90030896889B004FB06F606960F
:1052B400DCF808C0B5F9046003940CFB06F603FBA4
:1052C40004F405960494BC680294FC680194B5F94E
:1052D4000C40009401F00EFC09B0F0BD9B69FFDEA8
:1052E40000235B68FFDE00BF826913880BB95B682B
:1052F400FFDE2DE9F04F526857688FB007B13F6861
:10530400012B3ED01369002B39D01968FA68D2E911
:105314000283D1E90242B4F5A06F446AD1E90501E0
:10532400D0E9025CB4F90C60B4F904E0B4F900B05B
:105334008968D7E9057005FB06F6D2E902A98068F9
:1053440028BF12690C9605FB0EF60B960CFB0BF6A8
:105354000A96B4F90840CDF814C0CDE9065ECDE94B
:1053640008B4BC680494FC6838BF0122CDE902A4E7
:10537400CDE9008901F030FC0FB0BDE8F08FDB68A7
:10538400FFDE00235B68FFDE83691A880AB953686D
:10539400FFDE2DE9F04F59684B6893B0074603B11F
:1053A4001B68012A00F0F6800A69002A00F0F580E3
:1053B4001268D3F80CE099691E6893698868996843
:1053C400BEF80C30D7F830C00C93BB8B0D933B8CDC
:1053D4000E93BCF80430D5680F93BCF800301093DA
:1053E400BB8C1468BEF80480BEF80820B7F828B057
:1053F400B5F808A0B5F80CE0119346B3D6F804C08C
:10540400BCF1000F58D07588002D7AD1002C5DD0E6
:105414006768B946002F00F0AC806588002D40F025
:105424009E80F7EE007ABCF1000F00F09080758842
:10543400B0EE670A002D7BD10026002C00F0A3807B
:10544400B946002F00F089806588ADB918E0002CBA
:105454003CD0D4F80490B9F1000F00F09680648831
:10546400002C33D0D9F80040D4ED006AB7EE007AAE
:1054740087EE260AF0EE477AD9F8044094F90050F2
:10548400F5EEC07AF1EE10FA24DA119B0593109B25
:1054940004930F9B03930E9B02930D9BCDF818B0BE
:1054A400CDE90083CDE90965CDE907AE0C9B01F098
:1054B4009BF813B0BDE8F08F44B16768B946002F7C
:1054C400ABD13E46B7EE000A3D4603E02646B7EEB2
:1054D400000A2546119B0593109B04930F9B03938D
:1054E4000E9B02930D9BCDF818B0CDE90083CDE956
:1054F4000965CDE907AE0C9B00F06EF913B0BDE869
:10550400F08FDCF80050D5ED007AC4B16768B94675
:10551400002F88D06588002D85D03B6893ED007AF4
:1055240087EE870ABCF1000F28D07688002E87D03A
:10553400DCF8045095F90060002C81D123E0DCF8FC
:105544000450B0EE670A95F90060254698E7B0EE7E
:10555400670A6646002F7FF477AF3D4690E73B68C5
:10556400D3ED006AB7EE007A87EE260AF0EE477AAA
:10557400D8E7B7EE000AF0EE407A5DE76646002D04
:105584007FF47AAF7CE725467AE74E46B7EE000A09
:105594004D469FE700235B68FFDED368FFDE00BF54
:1055A40083691A880AB95368FFDE2DE9F04F5968F8
:1055B4004B6893B0074603B11B68012A00F0C8800A
:1055C4000A69002A00F0C7801268D3F80CE0D56895
:1055D400916914681E689A69BEF80C30D7F830C017
:1055E4000C93BB8B0D933B8C0E93BCF804300F9340
:1055F400BCF800301093BB8C9068BEF80480BEF8F1
:1056040008208968B7F828B0B5F808A0B5F80CE008
:1056140011932EB3D6F804C0BCF1000F30D07588B6
:10562400002D56D1002C37D06768B946002F79D0A9
:105634006588B7EE000A002D56D03B68D3ED000A0A
:10564400BCF1000F7BD07688002E54D1B946002FD0
:1056540066D0658835B3D9F8044094F9005021E048
:10566400D4B1D4F80490B9F1000F6AD06488B7EECD
:10567400000A002C5ED12646F0EE400A254611E0D1
:1056840054B16768B946002FD2D1B7EE000A3E463E
:10569400F0EE400A3D4605E0B7EE000A2646F0EE7D
:1056A400400A2546119C0594109C04940F9C039475
:1056B4000E9C02940D9C0C9BCDF818B0CDE90965A5
:1056C400CDE907AECDE9008400F06AF913B0BDE876
:1056D400F08FDCF8005095ED000AA4B16768B94674
:1056E40017B16588002DA8D1BCF1000F13D07588BF
:1056F400D5B1F7EE000ADCF8045095F90060002CEF
:10570400A4D12546CEE7DCF80450F7EE000A95F95B
:1057140000602546C6E7F7EE000A6646002F98D1DA
:105724003D46BFE7B7EE000AF7EE000A0026002C5C
:105734008CD1E6E7D9F80040D4ED000A8BE7664641
:1057440088E7B7EE000A4E46F0EE400A4D46A9E758
:1057540000235B68FFDED368FFDE00BF2DE9F04F56
:105764008DB0CDE90823BDF86470DDF870809DF933
:105774005840DDF868B09DF95C600A9408EBC70AEC
:1057840004460D461B98BDF860900B96534642465E
:10579400394601F0CBFABBF1000F1AD0CDF8708076
:1057A400C846B9461C9F0026099B04930B9B039390
:1057B4000A9B08990097CDE90547CDE901A328463E
:1057C4004B460136424601F055FFB3454C4445442F
:1057D400EAD10DB0BDE8F08F2DE9F04F95B0CDE9D9
:1057E40008010A93BDF87C300B93BDF89850BDF8BE
:1057F4008C309DF9A0100C93BDF89430049210469F
:10580400BDF87890BDF88020BDF88440BDF888C00C
:10581400BDF890809DF99CB005930391002D00F094
:10582400B780002B00F0B480B9F1000F00F0B08015
:10583400DFED5A5A00FB09FA2646F0EE406A2C4680
:10584400B7EE006A00201746C646654600FB0EFC0C
:10585400ACEB05030A9ADDED037A1194002BA5EB5A
:105864000C0CD4BFE0464FF000089444049A43441F
:1058740002FB03F30793059BCDE90D07CDE90F5E0A
:1058840000FB03F3BC45B8EEE75A0693A8BFBC4639
:1058940000230C9A0499129302FB03F2941B002C2C
:1058A400A6EB0202D8BF1746069A139603EB020032
:1058B400099A09FB0020079A2244A1EB04040B99DE
:1058C400C8BF00278C42A8BF0C4608993A4409FB7C
:1058D400021EF6EE004A01380022CDF808E05946CF
:1058E400E04558DA029BCDF8048003EB020BC64670
:1058F4006FF07F05A7420ADA5E463B4696F90080C0
:1059040001334545B8BF45469C424E44F6D10EF19D
:10591400010EF445D344EDD1DDF80480F4EE466A7B
:10592400F1EE10FA02D1039B99421AD06D1A07EED8
:10593400905AF8EEE77AB0EE457AA7EEA67AB5EE7D
:10594400C07AF1EE10FAB4BFF0EE657AF0EE647A44
:1059540077EE877AFDEEE77A17EE905A05F307059E
:105964006DB20132914500F8015FB9D1DDE912361B
:10597400059A01339BB29A428B468AD8DDE90D071A
:10598400119C431C98B28442DDE90F5E3FF65EAF82
:1059940015B0BDE8F08F6FF07F05BFE7FCFFFFBED9
:1059A40010B4BDF804400194BDF808400294BDF859
:1059B4000C400394BDF810400494BDF814400594C1
:1059C400BDF818400694BDF81C400794BDF820406B
:1059D4000894BDF8244009949DF928400A949DF93F
:1059E4002C400B945DF8044B01F08CBC2DE9F04F76
:1059F400A1B00546BDF8D840BDF8DC0012939C4622
:105A0400159404FB00F3BDF8B0401794BDF8B440FE
:105A1400BDF8AC90359E1894BDF8B8401C94BDF800
:105A2400BC40149409FB03639DF9C4401D949D423A
:105A34009DF8D0409DF9C870BDF8E4B0139116905C
:105A44001E9480F08C8001FB02F20CFB0252964201
:105A5400824638BF0120169028BF4FF0010A3A9BB6
:105A64003B9A3398A3EB49043B9B1C442346494689
:105A740001F05CF93B9B03EBC90319933B9B03EBDC
:105A840089014FEA49021A91B9F1000F00F08C80A4
:105A9400234603EB02080C1F4FF0010E33F9021BDF
:105AA400481E80B20EFA01FC142807FA01F101EB3A
:105AB4005C014FD8434544F8041FEFD1DDE93A13A4
:105AC4005C18A41ADDE9122313FB02F39AB2BBF1AA
